:020000022000DC
:1070000000000420057E03002D7E03002F7E030078
:10701000317E0300337E0300357E03000000000054
:10702000000000000000000000000000377E0300A8
:10703000397E030000000000000000000000000096
:10704000852005003B7E0300053F05005D26050009
:107050003B7E0300C51C05009D1A0500E14B0600A0
:107060003B7E03009D250500B12505003B7E030006
:107070003B7E03003B7E03003B7E03003B7E030020
:10708000E55806009DF004003B7E03003B7E0300B4
:107090003B7E03003B7E0300F90D05003B7E0300B1
:1070A0003B7E03003B7E0300C5250500D925050076
:1070B0003B7E03003B7E0300000000000000000058
:1070C0003B7E03003B7E03003B7E03001D51060018
:1070D000B52205003B7E03003B7E0300153C050006
:1070E000BD8506003B7E0300FDAC060000000000ED
:1070F000000000003B7E030000000000ED5406008D
:10710000000000000000000000000000000000007F
:10711000000000000000000000000000000000006F
:10712000000000000000000000000000000000005F
:10713000000000000000000000000000000000004F
:10714000000000000000000000000000000000003F
:10715000000000000000000000000000000000002F
:10716000000000000000000000000000000000001F
:10717000000000000000000000000000000000000F
:1071800000000000000000000000000000000000FF
:1071900000000000000000000000000000000000EF
:1071A00000000000000000000000000000000000DF
:1071B00000000000000000000000000000000000CF
:1071C00000000000000000000000000000000000BF
:1071D00000000000000000000000000000000000AF
:1071E000000000000000000000000000000000009F
:1071F000000000000000000000000000000000008F
:1072000010B5054C237833B9044B13B10448AFF3E0
:1072100000800123237010BDE0D100200000000099
:1072200098F0090008B5034B1BB103490348AFF3BD
:10723000008008BD00000000E4D1002098F00900A3
:10724000154B002B08BF134B9D46A3F5803A002138
:107250008B460F461348144A121A0EF049FB0F4B87
:10726000002B00D098470E4B002B00D098470020F1
:10727000002104000D000D48002802D00C48AFF397
:1072800000800EF0E5FA200029000EF06FF80EF0F5
:10729000CBFA00BF0000080000000420000000003E
:1072A00000000000E0D100207CC1012000000000AF
:1072B00000000000BFF34F8F0549064BCA6802F477
:1072C000E0621343CB60BFF34F8F00BFFDE700BF09
:1072D00000ED00E00400FA0500F5E0704FF0A04377
:1072E000022243F820207047052017F0DBBF02F090
:1072F0001FB9000070B52F4B2F4E1A782F4D012A61
:1073000043D12F4B197831B91A702E492E4847F2C4
:10731000305200F0E3FC2D4C6378032B35D02C4821
:1073200011F0FDFE00283DD0B2780123002A30D0B4
:10733000A370237800220A2B627020D11E4804F02B
:10734000DFFD0123234C2B702278012A08D1224B28
:10735000197871BB1A701B49204A1B4800F0BEFC0B
:10736000227832BB1C4B1978012922D11A701C4B90
:1073700014495A681448BDE8704000F0AFBC0E488C
:1073800004F0BEFD237801332370B378002BD5D1F0
:1073900002E002226270A37004F06EFE0228CDD0DB
:1073A0000023CFE701230448A370637004F0A8FD15
:1073B000EBE770BD38D7002068D600203CD800200D
:1073C00001D20020F572020028D20020E0D6002071
:1073D00074DF002039D7002018D20020A0BB0D0098
:1073E000D4D2002008B5074B1B78012B01D101F046
:1073F000F9FF12F007FBBDE808400146024800F023
:107400007BBC00BF08D2002028D200202DE9F04725
:1074100088B012F0F7FA804605F0A0FC05F0D0FC29
:1074200001F0C8FA01F09AFA01F0DAFA0B2001F043
:10743000F5FB04F001FD0628044609D0032005F001
:10744000E9FC4C4903224C4812F0CAF9042408E034
:107450004A4B1B78022B08D101F096FA484B0122C7
:107460001A70204608B0BDE8F087464D082001F0AC
:10747000D5FB04F01DFF297A0A2004F01DFF02F05D
:107480002FF8062805D0002005F0C4FC3E49002254
:10749000D9E701F09DF808F081F90628044605D0E7
:1074A000012005F0B7FC39490122CCE701F036FA9A
:1074B000022001F0B3FB58B9022005F0ABFC3449BF
:1074C0002D48022212F08CF94FF4FA6017F0EAFE10
:1074D000304B6A681A60082200250DEB02012E4825
:1074E000CDE9025511F0ECFD04212C4811F0C4FC4B
:1074F0009DF80F309DF80D202949009304A89DF8B0
:107500000E300695CDE90455CDF81B500EF01CFF4A
:107510002448294611F0D1FC0F2204A9224811F079
:10752000B1FC2946214811F0B6FC01F02AF801F01F
:1075300008F8431EDBB2FD2B0BD9052005F06AFCD1
:107540001B490D48052212F04BF941F2883017F023
:10755000A9FE45464FF0000A40F69F784FF000091B
:1075600012F050FA461B6AEB4A07B04579EB070365
:10757000F6DA76E71003070050DE0020E0D20020A4
:1075800008D20020D4D20020370307005D03070093
:107590008203070004D200206EDF002040DF0020BD
:1075A000AA03070034DF002042DF002050DF002064
:1075B000C0030700F8B5214C2378022B30D104F02A
:1075C0005BFD042801D001280FD112F01BFA1C49E1
:1075D00002461C4800F089FB1B4804F091FC12F0A5
:1075E00011FA1A4B002218605A602378022B17D127
:1075F000164DD5E90023134312D012F003FAD5E952
:107600000032C61A62EB42074FF47A620023B2429C
:10761000BB4105DA0023237000220023C5E90023C3
:107620000B4B5A680B4B19688A4206D01A60044902
:107630000448BDE8F84000F051BBF8BD3DD800203B
:10764000F572020028D2002068D6002020D2002047
:10765000D4D2002004D2002008B508F0C1F80628D2
:107660003DD8DFE800F0040B131B232B310006F09C
:1076700007FBBDE808401A4806F022BB06F000FBF5
:10768000BDE808401749164806F0BABB06F0F8FAFC
:10769000BDE808401449124806F082BC06F0F0FA32
:1076A000BDE8084011490E4806F03CBD06F0E8FA76
:1076B000BDE808400E490A4806F0EABD06F0E0FAC7
:1076C000BDE8084006F0BABE06F0DAFA07F022FD7F
:1076D000BDE80840074908480A2200F0FFBA08BD83
:1076E00048D7002094D70020E4D60020ECD7002013
:1076F00068D60020F572020028D2002013B508F0E9
:10770000D5F81228044606D106F0BAFA02B0BDE850
:10771000104006F043B9C21FD2B2082A0AD801921B
:1077200005F048FB0238019A03280FD8DFE800F083
:107730002B30353A102809D1019205F03BFB072880
:1077400004D005F037FB0B28019AE8D105F032FB95
:1077500007280ED1204607F0F7F9182C09D107F0B9
:1077600085FC012805D107F093FC0028CCD007F058
:107770009DFC05F01FFB0B2819D1132CC4D0142C31
:1077800015D1FFF797FD0B48114606F025FBDDE705
:107790000949084806F0F2FBD8E70849054806F011
:1077A000AFFCD3E70649034806F060FDCEE702B020
:1077B00010BD00BF48D7002094D70020E4D6002099
:1077C000ECD7002008B508F071F812280ED1084B4C
:1077D00000221A7007F00EFF06F0E0F8054B06498C
:1077E0005A680648BDE8084000F078BA08BD00BFF6
:1077F00001D20020D4D20020F572020028D200204D
:1078000008B507F07FFF264811F020FB254811F04E
:107810004AFB29F097FA29F0D5FA01460028FAD157
:10782000222012F0ABF81520FFF756FD1A20FFF7C3
:1078300053FD0420FFF750FD1B481C4C11F0D4FDF4
:107840000320FFF749FD1D20FFF746FD1E20FFF72F
:1078500043FD4FF4FA6017F025FD154811F0ECFEDA
:107860000D20FFF739FD0E20FFF736FD0A20FFF748
:1078700033FD09220121204612F04DF8204612F076
:1078800042F80221092012F062F840F6AC5017F0DD
:1078900009FD092012F077F80028EAD1FFF70AFD68
:1078A00034DF002050DF0020A8DF0020C8DE0020E9
:1078B000ACDF002010B50121222012F048F8012190
:1078C000222012F05BF80121152012F040F800216F
:1078D000152012F053F8022306224FF4E131234819
:1078E00011F030FA214811F057FF21491F4811F0DB
:1078F00063FF204B204A21491C4811F071FF1C49AD
:107900001A4811F059FFFFF781FD042805D141F213
:10791000883017F0C7FCFFF773FF194B1B7823BBA8
:1079200006F072F9174918480123642200F0B4F9EF
:1079300016491548012341F2883200F0ADF9144A86
:10794000144952681048012300F0A6F9124A13495D
:107950000D48012300F0A0F9BDE8104010490A4885
:1079600001234FF4FA7200F097B910BD50DE0020E9
:10797000D8030700FE0307000704070019D5080015
:1079800008D20020ED79020028D20020EF72020018
:10799000D4D20020F572020020BF0200A5790200B7
:1079A000E972020010B500F0CCFD044605F0CEFCF3
:1079B000FF2C06D103490448052211F011FFFFF7FF
:1079C0001FFF10BD1304070050DE002008B507F0AC
:1079D0006DFF1E2801D1FFF713FF122805D106F015
:1079E0004FF9BDE8084007F047BE08BD2DE9F74351
:1079F000874D2B6813F0010406D112F003F8854B74
:107A0000C3E9000401232B604FF08043D3F83864AE
:107A100008F05AF810B3804B1B78012B04D103B047
:107A2000BDE8F04308F056B811F0ECFF794B0022A6
:107A300018605A6005F0BEF90138784B0A280BD857
:107A4000DFE800F0062C2C2C2C2C2C0A32382C00D1
:107A50001B780BB9FFF700FE08F03CF86D4C6F4D3A
:107A600011F0D0FFD4E90032B0EB030862EB420919
:107A70006B4A0023424573EB09031EDA664F3B78DD
:107A8000012B1AD02B78012B17D00021152011F0D3
:107A900081FF01233B7003B0BDE8F0831B78002B0E
:107AA000DAD1FFF72BFED7E71B78002BD4D1FFF7F5
:107AB00089FED1E7FFF78AFFCEE705F07BF9431E89
:107AC0000746082B1CD8DFE803F0053C40454A4F29
:107AD000541B570004F0DCFA012809D1514B524ADB
:107AE000524953480093534B05F0EAFC04F0D6FA90
:107AF00001F064FE20B94E4805F09AFE01F064FEE4
:107B0000F6B2032E1CBF00232B702878394605F0EF
:107B100091FB00F06BFD012852D002282FD00028E5
:107B200038D1032E54D005F045F90A2832D03A4B0B
:107B30001978002962D1012215201A7011F02AFF4C
:107B400052E03A4806F040F9DAE73A49374806F099
:107B50000DFAD5E73449354806F0CAFAD0E731497D
:107B6000324806F07BFBCBE73149304806F020FC79
:107B7000C6E706F093FEC3E707F0B8FBC0E7264B65
:107B80001B783BB905F016F90A2803D006F078F8FF
:107B900007F054FD264B187805F09CFB04F06CFAB6
:107BA00040B205F06DF9FFF705FD04F06BFA40B245
:107BB00005F03EFB304603B0BDE8F04305F03EBCA7
:107BC000154A1D4B11781A780A43E3D11870E1E782
:107BD000114B1F78002FA6D105F0ECF80A28A2D08F
:107BE0002B783BB901232B7011F00CFF0023206090
:107BF0006360CFE7012BF7D12F70F5E70129F3D1AF
:107C000000221A700D4B187A04F070FBECE700BFED
:107C1000FCD1002010D20020B0D2002000D20020E1
:107C200020BF0200ECD70020E4D6002048D7002077
:107C300068D6002094D700203DD80020D4D2002060
:107C400010B5064C0021204600F00EF82046044AEC
:107C50000449BDE810400DF0D3BD00BF28D200207C
:107C600090A10020737C02000022C0E90022017272
:107C7000704738B50446006820B1856910F08AF86D
:107C80002846F9E7204638BD006820B143688B429A
:107C900001D08069F9E77047F8B504460F461646EB
:107CA0001D46FFF7F1FF20B101238260057043708C
:107CB000F8BD1C2010F072F8012343700023C0E9C6
:107CC0000333C0E9053323680570C0E9017613B9B1
:107CD00020606060ECE763689861FAE708B5FFF739
:107CE000D3FF08B18260012008BD08B5FFF7CCFFC3
:107CF00008B1C260012008BD2DE9F8430468164FA1
:107D000005460E464FF000081CB363680BB9A46922
:107D1000FAE72378002BFAD0E368A268F31A9A42B4
:107D200002D961780029F2D09B1A636184F801803E
:107D3000E66011F06CFE63688146984711F067FEBB
:107D40003B68A0EB0900206118442B7A3860002BB7
:107D5000DDD0BDE8F88300BF34D2002010F0800FE2
:107D600010B5194903D100230B7080B20DE00B78D8
:107D7000ABB900F0E002C02A08D18201134802F436
:107D8000F862028001220A70002010BD00F0F002AB
:107D9000E02AEAD102030D4802800222F3E70B4CED
:107DA000022BB4F9002007D1800100F47C63134357
:107DB000238001230B70E7E700F03F00104380B2FF
:107DC000002320800B70E0E744D2002046D2002040
:107DD000024B1860024B1960704700BF84D200202C
:107DE00088D20020024B1870024B1970704700BFF8
:107DF00098D2002099D20020034B1860034B1960E1
:107E0000034B01221A70704794D2002040D2002008
:107E100070D2002010B51B4C206818B10DF044FD45
:107E200000232360184C206818B10DF03DFD00239D
:107E30002360164C206818B10DF036FD0023236036
:107E4000134C206818B10DF02FFD00232360114C56
:107E5000206818B10DF028FD002323600E4C206827
:107E600018B10DF021FD002323600C4C206818B1DF
:107E70000DF01AFD00232360094A00231360094A0C
:107E8000137010BD8CD2002080D200206CD2002054
:107E900090D2002050D200204CD200207CD2002072
:107EA00054D2002038D2002010B507490A68137850
:107EB00050781B06141D43EA00439078D2780C607A
:107EC000134343EA002010BD78D200202DE9F04F83
:107ED0004E4DDFF84CB1AC88DFF84891DFF848A18F
:107EE000670089B038460DF0D7FC494A106020463B
:107EF0000DF0D2FC474B186020460DF0CDFCCBF8BE
:107F0000000020460DF0C8FCC9F8000038460DF00E
:107F1000C3FCCAF8000020460DF0BEFC3E4F38609E
:107F2000A0000DF0B9FC3B4B3C49394ACDF810A0FC
:107F30001C26CDE9023B6643183608604FF0000866
:107F40000192BA46AA882F8A1FFA88F39A424CD91E
:107F5000FFF7AAFF019B1FFA88F41A68079222F81C
:107F60001400FFF7A1FF029BD3F800B00BF8040048
:107F7000FFF79AFF039B1B6806931855FFF794FFC2
:107F8000D9F800100855FFF78FFF049B1968059179
:107F900021F81400FFF788FFDAF800301855FFF7D2
:107FA00083FF05991BF8040031F91410069B411A50
:107FB000B94208DD079A32F81420A2F121007E2888
:107FC0000FD87F2A0FD1154A126842F824601A5D33
:107FD0001BF8043008F1010802FB036611F0AEF94A
:107FE000B0E7FF2AEFD92982EDE7EB89B5F90C203C
:107FF0001F44B5F90A30EF80134407225B0093FB5E
:10800000F2F32B8109B0BDE8F08F00BF54D20020FD
:108010008CD2002080D200204CD200207CD20020C4
:108020006CD2002090D2002050D2002070B5144EA7
:1080300033780BB1FFF7EEFE124B134D1B682B602C
:10804000FFF732FFA880FFF72FFFFFF72DFFFFF7A5
:108050002BFFFFF729FF04466881FFF725FFA4B235
:10806000A88180B2EC810444A4B2EC800123A4086E
:1080700028822C813370BDE87040FFF727BF00BF16
:1080800038D2002078D2002054D200201FB5F0B1A1
:10809000104B1149186001A811F04CFA002101A8F9
:1080A000FFF7C4FF01A811F0FFF90C4A0023136089
:1080B0000B4A13600B4A13600B4A13600B4B0C4ABC
:1080C000B3F90C101160B3F90E200A4B1A6005B019
:1080D0005DF804FB78D200207DE4080048D200203F
:1080E0003CD2002084D2002088D2002040D800203A
:1080F00068D2002074D20020094B70B59E88094BCD
:108100001A680023023A9CB2A64207D9013332F81A
:1081100013508542F7D10C80012070BD0020FCE790
:1081200054D200208CD2002070B58B129412C0F172
:10813000FF0503F03E0304F03E0404FB055403FB7B
:10814000000323445C1216110B1103F07E0306F0AA
:108150007E0606FB055603FB00033344490052002C
:1081600001F03E0102F03E025B1201FB000002FB47
:1081700005555B0143EAC423284443EA602080B2EA
:1081800070BD00009E4B2DE9F04F1E689D4B9E4C2C
:10819000B3F800809D4B25681A689D4F8BB0AA42AA
:1081A00002931FBF9B4B1D60984B1D60202835D844
:1081B0001CD1994B974E1B7883B131683B89CDF820
:1081C0000480B7F9062000922B44944A9448B2F9EF
:1081D00000205B1A1BB209B202F03EFA22683B890A
:1081E000134423603360029A136014E00A2815D107
:1081F000884A8A4900231360029A08681360FA8843
:108200002360024487480A60007820B186480068ED
:10821000824200DB0B600BB0BDE8F08F0DF1260150
:108220004FF00009ADF82690FFF766FF7B49B7F8DD
:108230000EC00A68B6B2002800F0CE807B4BBDF8B5
:1082400026E01B6813F90E00794B1B788BB1794B34
:108250001B6813F80E301D44774B1B6805449D4284
:1082600007DDFB88C4F800901A446A4B0A60C3F823
:1082700000906C4B694A1B7843B1F98813680B4432
:10828000694909688B42A4BF0023136023680BB9B6
:10829000434223603B680393684B12681B68DFF816
:1082A000A89133F81E302168DFF888B10CEB020A80
:1082B000AAEB030AD9F8003013F80E30CDF8048089
:1082C0004518B8895E4F84440FFA8CF012B209B297
:1082D0000090534802F0C0F9514802F00EFB396893
:1082E000BDF82620DBF800304D489B5C8A5C00928C
:1082F0001FFA8AFAADB25246294602F049FDCDE98D
:1083000005B94FF0000A0497049ABDF826301268A8
:10831000D25C524553DD0027DFF804913B463D46D1
:10832000059ABDF826101268525CBA4236DD4548FF
:10833000006850F82110039838440AFB020212F832
:1083400001B0BBF1000F1FD023B11A464146484689
:1083500002F0A4F8BBF1FF0F12D025B12A46314636
:10836000484602F09BF8424631465846FFF7DCFE8D
:1083700001220146484602F091F80023002501E061
:10838000013500230137CBE735B12A46314648464F
:10839000079302F083F8079B0133EFE735B12048DC
:1083A00007932A46314602F079F8079B23B11C480F
:1083B0001A46414602F072F80AF1010AA4E7069A49
:1083C00017481268D35C22681344236002F0A9FAAC
:1083D000104A2368136006E7B7F90A301048CDE960
:1083E00000366244D21A12B2B7F9083029B201F04D
:1083F000F4FA3B892268013313442360E8E700BFA5
:1084000094D2002040D2002084D2002048D2002004
:1084100054D200203CD2002070D2002088D200200C
:1084200040D8002099D2002074D200204CD20020E5
:1084300098D200206CD2002068D2002050D20020B8
:1084400080D200207CD2002090D2002010B50446BB
:10845000FFF784FC50B10D2C08D0064B1B783BB1C4
:108460001F2801D80A2C01D1FFF78CFE012000E063
:10847000184610BD38D20020F8B504460E461746FF
:108480000DF094FFC5B2BFB96719A74204D014F824
:10849000010BFFF7DBFFF8E7B54250D20024751B54
:1084A000E3B2AB4204F1010449DA2020FFF7CEFF2A
:1084B0002020FFF7CBFFF3E7012F17D1B54207D3F9
:1084C0002544AC423BD014F8010BFFF7BFFFF8E79F
:1084D0000027761BFBB2B34207F10107F0DA202038
:1084E000FFF7B4FF2020FFF7B1FFF3E7022F26D1FB
:1084F000B54207D32544AC4221D014F8010BFFF755
:10850000A5FFF8E70027761BFBB2B34207F101078E
:1085100007DB2544AC4208D014F8010BFFF796FFA7
:10852000F8E72020FFF792FFEEE70024E3B29E4237
:1085300004F1010403DD2020FFF788FFF6E70120A6
:10854000F8BD08B5052011F0F8F940F27A239842F9
:108550000FDCB0F5177F0EDAB0F5127F0DDA40F2BE
:10856000312398420BDCB0F5077FB4BFFF20002019
:1085700008BD0420FCE70320FAE70220F8E7012009
:10858000F6E7FFF7DEBF0000D0B511F03BFA0D4C67
:108590000D4B0021C3E9000111F034FAD4E9003297
:1085A000C61A62EB4207C92E77F1000309DB11F00E
:1085B00029FA064A20600023636013780133DBB296
:1085C0001370D0BDA0D20020A8D200209AD20020E3
:1085D00008B50221092011F0BAF903490322092044
:1085E00010F05EFB062008BD898502002DE9F74FDB
:1085F000DFF820B111F006FADBE900230024811A2C
:1086000064EB030300910193DDE900234FF47A60EA
:108610000021904271EB0303A2465D460FDA092068
:1086200011F0B1F958B93A4B1A7842B118700022DA
:108630000023CBE90023022003B0BDE8F08F11F046
:10864000E1F9D5E90023B0EB020863EB4309B8F583
:10865000C87F79F100032ADB2D4B1A78012A99464D
:1086600025D1092011F08FF9012820D14FF0000801
:10867000C82C11D0092011F086F9012808BF08F193
:1086800001084FF0010004F1010408BF5FFA88F807
:10869000E4B216F007FEEBE7B8F1C60F07D90020E9
:1086A0000022002389F80000C5E90023C4E711F087
:1086B000A9F9D5E90023861A63EB4307B6F5C87F0D
:1086C00077F1000301DA0320B6E7114E3278012A70
:1086D000F9D90024BAF1C80F10D0092011F053F9CC
:1086E000012808BF01344FF001000AF1010A08BF58
:1086F000E4B25FFA8AFA16F0D5FDEBE7C62CE2D9B0
:108700000023337000220023C5E90023012093E7F2
:108710009AD20020A8D200202DE9F0470026AEB062
:1087200014460D462E22314608A807960DF0E0F8B3
:10873000636E012BCDE905666FD1206838490DF0D5
:1087400023FE0446002868D1082205A93548DFF831
:1087500008A107AF10F0B4FC3222214638460DF0D4
:10876000C7F805AEA146A04607EB090016F8012B95
:10877000514608F101080DF0E7FDB8F1080F09F1C5
:108780000209F1D1284A0023164619460133112B5C
:1087900002F8011BFAD1254B254A1B6812682549AE
:1087A00021480DF0D1FD2946234810F0E5FF02963F
:1087B000224E234B234A24491F48CDE9007611F06D
:1087C0000FF81D4810F0E8FF1D4B1E4A1F49009787
:1087D00014A80DF0B9FD144B1D49324621A80DF027
:1087E000B3FD28460DF0E2FD294682B2194810F08B
:1087F00070FB14A80DF0DAFD14A982B2154810F030
:1088000068FB21A80DF0D2FD21A982B2114810F019
:1088100060FB20462EB0BDE8F0870224F9E700BFD8
:10882000584F09006EDF0020B1D200206400001014
:1088300060000010A8D4080050DE0020C9D4080051
:10884000AFD40800B6D40800B9D40800D4D40800C6
:10885000DED4080034DF002021720900536E012BA2
:1088600010B515D10B4910680DF08EFD044678B98E
:1088700009490A4810F06EFF0949084810F09CFFAA
:10888000084B094A0949054810F0AAFF204610BDC7
:108890000224FBE7584F0900E7D4080050DE00200F
:1088A000F4D4080004D50800070407000DD508001B
:1088B00038B5556E012D25D114681349062220467E
:1088C0000CF0FAFF10B9114B187038BD1049042292
:1088D00020460CF0F1FF10B90C4B1D70F5E70D4967
:1088E000032220460CF0E8FF18B9084B02221A7048
:1088F000EBE70949032220460CF0DEFF10B9034BD9
:108900000322F4E70220E0E722D5080094A100202A
:1089100029D50800447609002ED5080007B5094B73
:1089200009481B78012B094B4FF00302CDE90032B7
:10893000074B0CBF074A084A194610F0DDFC03B08C
:108940005DF804FBE0D200202EDF0020C18A020087
:1089500032D508003BD508008AD5080007B50323A7
:108960000193054B0093054B054A0648194610F044
:10897000C3FC03B05DF804FB9D8B0200D8D5080052
:10898000EBD508002EDF002007B501230193054B2E
:108990000093054B054A0648194610F0ADFC03B09C
:1089A0005DF804FBB1880200EFD90800EBD50800A0
:1089B0002EDF002007B502230193054B0093054BE2
:1089C000054A0648194610F097FC03B05DF804FB11
:1089D0005D88020025D608002DD608002EDF002075
:1089E00007B502230193054B0093054B054A064842
:1089F000194610F081FC03B05DF804FB19870200F2
:108A000066D608006FD608002EDF0020014B1878CC
:108A1000704700BF94A10020014BFF221A707047DD
:108A200094A1002030B5002587B004460E222946C7
:108A300002A801950CF05CFF0B2C20D006D8022C6C
:108A40000AD0082C12D0284607B030BD102C19D0FF
:108A5000302CF8D1154B13E0154B5B680193AA231A
:108A60008DF80830052301AA214619E0104B1B7A26
:108A70008DF80430AA238DF805300223F3E70D4B5F
:108A80001B78F5E701AB0C491A4611F8010B03F806
:108A9000010B013CF9D1AA238DF8143010211123C8
:108AA000064810F041FC0120CEE700BFD2D20020E2
:108AB000D4D20020E0D20020C2D200202FDF00203C
:108AC000F0B5536E012B8FB00E4603D00224204622
:108AD0000FB0F0BD15682B4928460DF055FC044633
:108AE00060B128460DF062FC2A46284490422BD003
:108AF00012F8013B303B092BF8D9E7E7224F234816
:108B0000314610F039FE4FF47A757A682049B2FB8D
:108B1000F5F21E4810F064FE7A681D49B2FBF5F2CA
:108B200001A80DF011FC30460DF040FC314682B238
:108B3000184810F0CEF901A80DF038FC01A982B256
:108B4000144810F0C6F9C2E70A22002128460DF0A9
:108B5000C5FC114B1B78012B07BFA0F11E0240F68C
:108B6000F253821F40F60A639A42AFD8064A0123A5
:108B700013704FF47A73584350600220FFF752FF8E
:108B80000024A4E7584F0900D4D2002050DE002072
:108B900092D6080034DF0020E0D2002038B5556EB0
:108BA000012D2BD1146817490A2220460CF084FEAF
:108BB00068B9154B1D700B20FFF734FF124B1B7863
:108BC000022B17D1114810F0F2F9002038BD1049DE
:108BD0000A2220460CF070FE10B90B4B1870EAE721
:108BE0000C490E2220460CF067FE022340B9064ACB
:108BF0001370E0E7084810F0E9FAE6E70220E5E73D
:108C00001846E3E79AD60800E0D20020A4DF00204F
:108C1000A5D60800B0D608008DDF002030B50B289F
:108C200089B0014677D005D8022816D008285BD035
:108C3000002447E0102800F081803028F8D102237A
:108C4000574803AA10F066FB564B0446002840F034
:108C50009D8001221A70302026E0052303AA01908E
:108C60004F4810F057FB504B504A0199044660B9E9
:108C70001D7844F6206047F23053012D18BF03469B
:108C800053600846FFF7CEFE1CE01C789DF81030BC
:108C9000AA2B0CD047F2305044F62063012C0CBFB5
:108CA00004461C4654600846FFF7BCFEC0E7039B21
:108CB0005360012C0DD13E48A3F5EA43303B83427B
:108CC00003D80124204609B030BD47F23053536029
:108CD000E9E7002CF5D13748A3F5BB53103B83429D
:108CE000EFD941F27073CBE70223019003AA2C481D
:108CF00010F010FB2D4B0199044610B90A221A728C
:108D0000E0E79DF80D20AA2A02D00A221A72CAE7CB
:108D10009DF80C20F3E70223019003AA204810F0ED
:108D2000F9FA214B0199044608B91870CAE79DF871
:108D30000D20AA2A2FD000241C70A2E70190112335
:108D4000174803AA10F0E6FA0199044640B91A4AF6
:108D5000034601460133102B02F8011BFAD1B1E79B
:108D60009DF81C30AA2B08D00020134B024601307E
:108D7000102803F8012BFAD196E70F4A03AB13F83A
:108D8000010B02F8010B0139F9D19AE79DF80D208A
:108D9000AA2A7FF45EAF9DF80C201A7092E700BFFC
:108DA0002FDF0020D2D20020E0D20020D4D2002039
:108DB0005079360010D73600C2D20020704700002C
:108DC0002DE9F843164C237806460D4653B1154B52
:108DD0001F680021CBB2F85C30B1134401311B7A1B
:108DE0008342F7D0BDE8F8830F491048DFF8489078
:108DF000DFF8388010F0F4FCAF1D17F8012D49465C
:108E0000404610F0EDFCAF42F7D132460849074822
:108E100010F0E6FC074B01221A7000232370E1E7F3
:108E2000E1D2002098A10020BFD6080050DE00202B
:108E3000CAD60800E3D20020C4D6080000B59FB00F
:108E400003AB83E807000F4B9DF810200121197038
:108E500032B90D490D4810F0AFFC1FB05DF804FBAE
:108E60009DF914300A49009307A8BDF912300DF09E
:108E70006BFA064807A910F0A9FC064A13780133DB
:108E80001370EAE7E8D20020D6D6080050DE0020B2
:108E9000E4D60800E2D200202DE9F74F012122207C
:108EA00010F055FD01212220454C10F067FD0121F5
:108EB000152010F04CFD0121152010F05FFD00235E
:108EC0004FF4A072F021204601F008FF0321204654
:108ED00001F0B0FE4FF47841204600F070FD4FF4F1
:108EE000FA6016F0DFF94FF4FC61204600F067FDF0
:108EF0004FF4FA6016F0D6F91F21204600F05FFD0E
:108F00004FF4FA6016F0CEF92E4802F003F8022171
:108F10000A2010F01CFD0221092010F018FD01218B
:108F2000204601F0B6F9284A28494FF0FF33C4E93A
:108F3000042320460123E37610F00CFC2349244847
:108F400010F03AFC234B236110F05CFD4FF0000B56
:108F50000546DA4641F287384FF0000910F052FD1D
:108F6000461B6BEB4B07B04579EB07031FDB0A2071
:108F700010F009FD00284FF0090008BF4FF0010A6A
:108F800010F001FD0028E9D1BAF1010FE6D1124934
:108F900001900B4810F0DEFB10490D4810F020FC4A
:108FA0000021152003B0BDE8F04F10F0E7BC094BDD
:108FB0000B490348236110F0CDFB0A49EDE700BFE0
:108FC00084D40020ECD200201400320014D7080012
:108FD00050DE00201400640049D7080055D708006F
:108FE00062D7080072D708002DE9FF416249634843
:108FF000634D644CDFF8E88110F0DEFB62480FF04F
:10900000D6FF6249002814BF22462A465B4810F06A
:10901000E7FB5F4BD3E9006755A3D3E90023304654
:10902000394646F0CFFD02460B4630463946CDE97B
:10903000022346F075FF01465648574F0FF04EFF8A
:10904000002814BF20462846DDE90223534900903A
:109050004A4810F0C5FB524B52481A8819780292C0
:109060000FF04BFF029A5049002814BF23462B46AD
:10907000424810F0B5FB4D4B4D481A8802921146FC
:109080000FF04AFF029A4B49002814BF23462B4693
:109090003A4810F0A5FB484B48481A880021053291
:1090A00002920FF048FF029A4549002814BF234658
:1090B0002B46324810F094FB424B43481A880292E8
:1090C00008210FF047FF029A4049002814BF2346A9
:1090D0002B462A4810F084FB3D4B3E481A880292EA
:1090E00016210FF055FF029A3B49002814BF234672
:1090F0002B46224810F074FB384939480FF064FFC2
:1091000041F2883136480FF034FF3649002814BF49
:1091100022462A461948344D10F062FB10F072FCCA
:10912000002206462A7010F06DFC41F28732831B44
:10913000934215D83B7873B1002340F6B8314046CE
:109140003B700FF016FF0E4A2649002818BF224632
:109150000A4810F045FB4FF4FA7016F0A3F8E2E766
:109160002A782249054804B0BDE8F04110F038BB28
:109170000000000080842E4190D7080050DE0020BF
:109180008BD7080083D70800A4DF00209AD70800F7
:10919000A0A1002099DF0020E8D20020B9D7080064
:1091A000AAA100209ADF0020DCD708009CA10020A3
:1091B0009BDF002003D80800E6D200209CDF0020BF
:1091C00023D80800A8A100209DDF002045D8080072
:1091D000ACA100209EDF00206BD808003D8E02006D
:1091E0008EDF00208AD80800E2D200209FD8080035
:1091F000214B224922482DE9F041224D01241C70C7
:1092000000232B7010F0ECFA1F4B1978A9B91F48F6
:109210001C700FF01FFE1D484FF4FA724FF47A7164
:109220000FF01BFE28B91A49154810F0D9FA194950
:1092300016E0194915480FF019FE10F0E3FB174F1F
:109240000F4E044643F6972810F0DCFB001B404508
:1092500010D84FF47A7016F025F82B782BB11049FE
:109260000748BDE8F04110F0BBBA3946304610F06F
:1092700071FAE9E70B49D7E7E1D20020C5D8080029
:1092800050DE0020E3D20020E4D2002067DF00207F
:10929000E6D8080002D90800C18D02006C9C0900C4
:1092A0001CD9080035D908002DE9F347404810F0D3
:1092B000AFF9002300933E493E4840F24C4342221E
:1092C0000BF032FC30B93C493C4802B0BDE8F047F5
:1092D00010F086BA40F24C4201213648DFF8FCA07B
:1092E000344CDFF8FC900BF0C1FA40F24C42012103
:1092F00030480BF0C1FA10F085FB804610F082FB7D
:10930000A0EB0800504551D840F24C4120460BF0EC
:109310001AFD40F24C41074620460BF0F9FC40F2A2
:109320004C41064620460BF029FD0546002F34D05F
:10933000002E32D0002830D040F24C4120460BF0B5
:10934000ADFC50B31D4810F027FA1D491B4810F022
:1093500011FA0A223946194810F092FA19491748A9
:1093600010F008FA0A223146144810F089FA16491A
:10937000124810F0FFF91549104810F0FBF90A22C5
:1093800029460E4810F07CFA11490C4810F0F2F909
:109390000A4810F001FA0F4996E74946074810F0CD
:1093A000D9F94FF47A7015F07DFFA7E70A498BE7EA
:1093B000ACDF002004D3002058D9080050DE002084
:1093C000F4D90800FBD9080003DA080016DA08000F
:1093D0001DDA08006AD9080079D90800BFD4010055
:1093E0006C9C090008B50121222010F0B0FA01217F
:1093F000222010F0C3FA1B4E1B4C1C4DFFF706FB3E
:1094000078B91B49204610F0EBF9FFF745FD2946D6
:10941000204610F0E5F9FFF7FFFA642015F042FF4F
:10942000ECE7FFF7F3FA012806D11249204610F0C5
:10943000D7F9FFF7D9FDEAE7FFF7E8FA022806D1E6
:109440000D49204610F0CCF9FFF7D2FEDFE7FFF719
:10945000DDFA0328E1D13146204610F0C1F9FFF7CB
:1094600023FFD4E7D4D9080050DE0020A3D9080098
:109470008CD90800AFD90800C2D9080038B5114D01
:10948000114C092304221A21284601F011FC284618
:109490000E4D0F4922460CF0B3F90A220921284645
:1094A00001F014FD28460B4D0B4922460CF0A8F99B
:1094B000284606F047FB224628460849BDE83840C2
:1094C0000CF09EB984D4002090A10020ECD20020A2
:1094D000BD8D020004D30020BFAE02004501030091
:1094E00013B51148002410F093F80F490F48009469
:1094F00040F24C4342220BF017FB98B140F24C4231
:1095000001210A480BF0B2F940F24C42052107480C
:109510000BF06BFB054840F24C43224601210BF057
:109520006BFA062002B010BDACDF0020D4D40020BE
:109530002DE9F84FDFF8F88179484FF0000940F243
:109540004C41A8F8009088F802900BF0FCFBC11782
:10955000C8E9080140F24C4171480BF0D9FBC11732
:10956000C8E9060140F24C416D480BF007FC40F29F
:109570004C41C8F838006A480BF078FB40F24C4187
:10958000A8F8100066480BF0A8FBB8F810A0654BCF
:1095900088F83C00BAF1C70F83F8009005464446AE
:1095A0004B4600F2A980052840F2A680D8E908675A
:1095B000D8E9062346EA020047EA030150EA010C13
:1095C0000FD1C8E90801C8E90601A8F8009088F899
:1095D0000290A8F81090C8F8389088F83C90BDE840
:1095E000F88F002A73F1000175DAD2F1000B63EBFA
:1095F000430C4FF4004946A3D3E90023634508BF59
:109600005A456BD3BCF1000F08BFBBF16B0F69D398
:10961000BBF16B004FF0D7024FF000034CF1FF316C
:1096200046F0EEFC8046002E77F1000341EA090B7C
:1096300004DA76424BF4804B67EB470736A3D3E955
:109640000023BB4208BFB24250D3002F08BF352EC3
:109650004FD3B6F135004FF06C024FF0000347F1E5
:10966000FF3146F0CDFCD4ED0E7ADFED2F6A84F8A1
:109670005950B8EEE77ACB05C7EE267A43EA502375
:1096800043EA0B0348EAC0501A0AC4E9120384F8FB
:109690005130030E84F85230030C84F853305FFAD3
:1096A0008AFA90FA90F877EEA67A84F85020FDEEC8
:1096B000E77AA4F8548017EE903A5BBAA4F85630D3
:1096C0000A23BAFBF3FA40F201132380012384F842
:1096D00058A0A37083E793469C468CE7DFF854803C
:1096E0000021A0E74FF0000841469CE70F48002109
:1096F000B9E700200146B6E700200021C4E90801CF
:10970000C4E906012382A36384F83C3067E700BF05
:10971000FFD1496B00000000FFE8A4350000000005
:10972000D4D40020AEA1002000007A4415287F0088
:1097300068D600207DBF7F002DE9F74F1B4EDFF874
:1097400078801B4FD6E900CAD8E906EB3E68D7F807
:1097500004900196D8E90878BCEB0E026AEB0B0383
:10976000F41B69EB0805002A73F1000603DABEEB6F
:109770000C026BEB0A03002C75F1000603DA019E64
:10978000BC1B68EB090510190A4A43EB050182422C
:109790004FF0000373EB0104BCBF1046194664226E
:1097A000002346F0DDFB03B0BDE8F08F60D600205B
:1097B00058D6002040420F0068D60020014B187890
:1097C000704700BFAEA10020014B01221A70704704
:1097D000AEA1002010B5054C204606F0B3F9204696
:1097E000034A0449BDE810400CF00AB8D4D4002064
:1097F00090A10020450103002DE9F04F85B01F46E0
:10980000BDF93880BDF83C30A8EB0209A7EB010A8E
:10981000B9F1000FB8BFC9F10009BAF1000FB8BF24
:10982000CAF1000AD14583460C46154604DD3A4686
:109830002C4647460D469046BC4205DD2A46454625
:10984000904622463C4617463E1BB2B20092A8EB19
:109850000502002AB8BF52420192C6F3C03202FA92
:1098600086F64545B4BF01224FF0FF3276100292D2
:10987000BC421CDCDBF800200393D145D2F81080F9
:10988000C7BF294622462A4621465846C047019A64
:10989000039BB61AB1B236B2002E05DA029A15440D
:1098A000009A56182DB236B2013424B2E0E705B062
:1098B000BDE8F08F704710B40468A468A4465DF852
:1098C000044B604730B40468BDF808500295246B1F
:1098D000A44630BC604730B40468BDF80850029517
:1098E000646BA44630BC604770B4BDF90C50BDF841
:1098F00010600468CDE90356A46BA44670BC6047B1
:109900002DE9F3411C460368BDF82080DB6805465D
:109910001646013C34440F4624B298472B68CDF8D4
:10992000048000941C6A28463B4632463946A047CC
:109930002B685B6A284602B0BDE8F04118472DE964
:10994000F3411D460368BDF82080DB6804461746D6
:109950000E469847CDE9007822686B1E3344156A9D
:1099600020461BB23A463146A84723685B6A204628
:1099700002B0BDE8F04118472DE9F3471E460368E1
:10998000BDF92890DB68BDF82C800C4605461746CB
:1099900098472644B4422B680BDACDF80080D3F800
:1099A00018A021464B463A4628460134D04724B2F7
:1099B000F0E75B6A284602B0BDE8F047184713B5E8
:1099C00002680191B0F90E100091946BB0F90C305F
:1099D00000221146A04702B010BD2DE9F3471D46F5
:1099E0000368BDF82C80DB68BDF9289004460F465B
:1099F000164698472368CDF80080D3F81CA032465D
:109A00002B4639462046D0472368CDF8008009F11F
:109A1000FF323244D3F81CA039462B46204612B2FE
:109A2000D0472368CDF80080D3F818A032464B46C3
:109A300039462046D0476B1ED9192368CDF80080DF
:109A40009D6920464B46324609B2A84723685B6AA7
:109A5000204602B0BDE8F047184770472DE9F743AC
:109A600099421646BDF92870BDF82C9002688046D0
:109A70000D461C4613D1BE42C8BF3346CDF82890D0
:109A8000C4BF3E461F467B1C146B9B1B1BB2324659
:109A900029464046A44603B0BDE8F0436047BE42B5
:109AA0000AD19942C2BF0B4625461C46631CCDF81D
:109AB0002890546B5B1BE9E7D3689847CDE90079A0
:109AC000D8F8003040461F6A324623462946B84738
:109AD000D8F800305B6A404603B0BDE8F043184751
:109AE00001F00303B0F90A208376C907B0F9083002
:109AF00059BF8381C2818281C381704730B5428161
:109B0000C281074A074D0181002481814FF0FF3156
:109B1000C0E905124460056004610477046230BD49
:109B2000010100012CDF08002DE9F04F9DB216461F
:109B3000C5F1010287B01F4613B2C5EBC532520012
:109B4000019313B2026804930446D268BDF840B092
:109B5000894690472168B3B215FA86F2D1F8108091
:109B6000009349465B4612B22046C047009B2168DD
:109B70005A1BD1F810805B46494612B22046C047B6
:109B8000226815FA89F11FFA89F85B46D2F810901D
:109B900009B232462046C8472268A8EB05015B4659
:109BA000156909B232462046A84700230393039B58
:109BB000BB4276DA019B002B0ADB049A023213B215
:109BC0000493019B13FA82F2013F13B23FB2019357
:109BD000039A2168013213B20393019B0D6996B277
:109BE00003EB4602013213B20193009B08EB060A15
:109BF00013FA87F20FFA8AFA12B25B4602925146C2
:109C00002046A847A8EB06092168029A0D690FFAB9
:109C100089F95B4649462046A847BBB202932168B2
:109C2000009B029A9A1A0B6912B21D4605925B4676
:109C300051462046A8472168059AD1F810A05B46F6
:109C400049462046D047029B216808EB0309009B48
:109C5000D1F810A09A190FFA89F912B25B46059251
:109C600049462046D047029B2168059AD1F810A0AA
:109C7000A8EB03052DB25B4629462046D047009B42
:109C800021689A1B12B20E6902925B464946204631
:109C9000B0472168029A0E695B4629462046B047C4
:109CA00085E723685B6A204607B0BDE8F04F184798
:109CB0002DE9F04F8BB01C46BDF858300493A3B289
:109CC000C3F10105C3EBC3335B001BB20793BDF9BE
:109CD000543001339BB2059393B206938846059B9B
:109CE0009DF8501003930023029301F001030893A1
:109CF000DDF818A001F0020383462DB20993029B00
:109D0000A3426FDA002D6BDB079B0233661E1AB28B
:109D100015FA83F536B207922DB2029F01371FFA6A
:109D200087F93BB205EB490501359E4202932DB2FE
:109D300029DB089B93B104980090DBF8000006999A
:109D4000059B8069B2B203EB42038A1A09EB080152
:109D500007461BB212B209B25846B847099B93B1E5
:109D600006990498059B0090B2B2DBF8000003EB63
:109D700042038A1AA8EB09011BB2D0F8189012B25C
:109D800009B25846C847B44220D0089B73B1DBF8EB
:109D90000030049A009208EB0401D3F81890BDF942
:109DA0000C300FFA8AF209B25846C847099B6BB1CA
:109DB000DBF80030049A0092A8EB04010FFA8AF253
:109DC0009C69BDF90C3009B25846A0470AF1FF332F
:109DD0001FFA83FA039B02339BB2039334468EE748
:109DE00026469AE70BB0BDE8F08F2DE9F04F2DED38
:109DF000028B87B09946BDF94850BDF850A04D453B
:109E00002B46A8BF4B460F4603EBD373BDF94C104E
:109E10005C108C420368A8BF0C4606461FFA84F803
:109E2000DB6893469847CDE9005ABBB218FA87F72A
:109E3000316805933BB208EE103A1FFA89F34FEAF6
:109E400048094A6904931FFA89F9A3EB090318EE3C
:109E5000101A174630465A461BB2B847059B591E82
:109E6000049B013DA5EB090519442DB208EB0B023B
:109E7000A1EB0801012312B2009330462346CDE93D
:109E8000015A09B20492FFF713FF022300933046F0
:109E90002346CDE9015A049A18EE101AFFF708FF7D
:109EA00033685B6A304607B0BDEC028BBDE8F04F0B
:109EB000184700002DE9F04F2DED028B91B01646AA
:109EC000026ABDF874809DF878509DF87C4003913B
:109ED0001F46BDF8703004938346002A40F0C580C9
:109EE000B0F90C308B4240F34C81B0F90E30B342E4
:109EF00040F34781062313FB0513002B40F34181F8
:109F000006EBC403002B40F33C81037F1BB9AF2F4A
:109F100084BF0137FFB2DBF800305846DB68984752
:109F20000522099200220592984A07EB8703D3186D
:109F30000C93B3B20693059A0C9B9B5C0793ABB250
:109F40000B93BDF80C300893039B02FB05F919FA3B
:109F500083F90FFA89F308EE103A08230A93039B5A
:109F600002EB030A4FF000090FFA8AFA079ADBF8AE
:109F70000030D20752D5012D1FFA89F23ED1012CB3
:109F80003CD11B6906991F46049B0A4412B25146F4
:109F90005846B84709F101034FFA83F9079B5B085C
:109FA00007930A9B013B13F0FF030A93DED1059F41
:109FB00001377BB20593099B013B13F0FF03099323
:109FC000B9D1049B43450FD0012DDBF800303BD1C4
:109FD000012C39D10899CDF8008005319C693246B1
:109FE000082309B25846A047DBF800305B6A5846A0
:109FF00011B0BDEC028BBDE8F04F1847069914FB79
:10A0000002F20A440499019100945B6918EE101A57
:10A010001F4612B22B465846B847BBE7049A424542
:10A02000B8D0012D1FFA89F207D1012C05D11B6987
:10A0300006991F460A444346A8E70699CDF80480CE
:10A0400014FB02F20A44DFE70B9ACDF8048002EB1E
:10A050008201089AE4000A44114600945C69324681
:10A060002B4609B25846A047BEE7137A51681268DA
:10A070000D92FF1AFFB201EBC70331F837200692A9
:10A080009A780992DA780B92012D93F9052093F9C9
:10A0900006A00A9201D8012C57D9BDF9283008939F
:10A0A0000FFA8AF30793DBF800305846DB689847CD
:10A0B000B3B24FF000080E931AFA86F3C146474632
:10A0C0000F930B9B9F428FD2079B0E9A3B4403FB3F
:10A0D0000423002205920F9A1BB202EB070A08EE36
:10A0E000103A0FFA8AFA4346099A0599914241D2E9
:10A0F0005A1CD2B25B070C9207D1069B06990D9AA7
:10A1000001339BB212F80190069319F0800F12D020
:10A11000012DDBF80030BDF80C101AD1012C18D13C
:10A120000A9A1B691144059A11441E465246049B23
:10A1300009B25846B047059E0136F3B24FEA4909C5
:10A1400005935FFA89F90C9BCEE70023CDE907332D
:10A15000A9E70598089A024402FB0511049ACDE983
:10A1600000425B6918EE102A1E4609B22B4658467B
:10A17000B047E0E7099B013798445FFA88F8FFB2DF
:10A180009FE711B0BDEC028BBDE8F08F23DA080029
:10A19000F0B5026A85B004460B46002A34D10A297C
:10A1A00008D1438A0282427E03EBC203638201200C
:10A1B00005B0F0BD0D29FAD0E17E007E657E71B15B
:10A1C000B4F91060062111FB0061B4F90C60B142D2
:10A1D000C1BFB4F91210228201EBC5026282E28A89
:10A1E0000192A28A0092CDE90205B4F91220B4F9D5
:10A1F00010102046FFF75EFE237E228A03EB430306
:10A2000002EB43032382D2E70A2907D1002303820A
:10A21000137B417E428A01FB0323C7E70D29C6D089
:10A22000157AA942C3D3917A9942C0D351685D1B74
:10A23000EDB201EBC505AF782FB3E97819B3E17E34
:10A24000007E667E91B195F905103944B4F910701D
:10A2500000FB0171B4F90C70B94207DD00272782B9
:10A26000B4F91210127B02FB06126282E28A01929A
:10A27000A28A0092CDE90206B4F91220B4F91010B6
:10A280002046FFF717FE2979237E228A01FB03234C
:10A29000B8E7012938BF01210176417670470121D5
:10A2A000C0B20FF06BBB0021C0B20FF067BB10B59E
:10A2B0000446002100780FF061FB20780121BDE801
:10A2C00010400FF05BBB000038B512B2044609B273
:10A2D0001D46FFF713FC0B4B23609DF9183084F8E3
:10A2E00035309DF9103084F8363000229DF9143055
:10A2F00084F8342084F83730A263A2872264656230
:10A30000204638BD7CDF080030B585B004469DF995
:10A31000245002959DF92050CDE90035024BFFF7FE
:10A32000D3FF204605B030BDA8DF0020F8B5434F6D
:10A33000044690F93600002918BF0F46002816463B
:10A3400008DB0121C0B20FF002FB94F836000121B6
:10A350000FF014FB94F8370001210FF0F8FA94F88D
:10A36000370001210FF00AFB94F8345075BB01232C
:10A37000606A84F82D30324BA762984284F82C60D2
:10A38000266301D10FF02AF894F93500002854DB38
:10A390000121C0B20FF0DBFA94F8350001210FF073
:10A3A000EDFA642014F07EFF94F8350000210FF0E0
:10A3B000E5FA642014F076FF94F8350001210FF0DF
:10A3C000DDFABDE8F840C82014F06CBF012D1CD1A7
:10A3D00094F8240029460FF0BAFA94F824000021DA
:10A3E0000FF0CCFA94F8260029460FF0B0FA94F852
:10A3F000260000210FF0C2FA94F925000028C3DBE3
:10A400000021C0B20FF0A3FABEE794F825000121A5
:10A410000FF09DFA94F8250001210FF0AFFA94F99E
:10A4200026000028B0DB0121C0B20FF090FA94F8AA
:10A43000260001210FF0A2FAA6E7F8BD0024F400DF
:10A44000A8DF002010B5002B08BF0B46002090426B
:10A4500006D031F8104064BA23F810400130F6E716
:10A4600010BD2DE9F04105469DF818700E461446C2
:10A4700092B117B93B46FFF7E5FF686A6300002217
:10A4800031460EF0EAFF3FB93B46224631462846A8
:10A49000BDE8F041FFF7D6BFBDE8F0812DE9F743F5
:10A4A00005460E461446002A68D0B0F90C804FEAE3
:10A4B0004808904528BF90464FEA480948460BF0A7
:10A4C000EBF90746F0B176BAB6B2034681444B4584
:10A4D00015D14FF001094445264628BF4646CDF820
:10A4E00000900123324639462846FFF7BAFFA41BE5
:10A4F000F1D1384603B0BDE8F0430BF0D5B923F8ED
:10A50000026BE4E795F834304FEA1628F7B253B9F6
:10A51000013C33D34146686A0EF0AFFF686A3946A2
:10A520000EF0ABFFF4E7012B1FD1013C26D3B04660
:10A53000102718F4004F14BF0121002195F82400C2
:10A540000FF01CFA013F95F8260001210FF016FAD2
:10A550004FEA480895F826000021BFB20FF00EFA26
:10A560001FFA88F8002FE4D1DFE7B84506D025357B
:10A57000013C03D32846FFF79AFEF9E703B0BDE894
:10A58000F0832DE9F3411D46BDF8203000930368A8
:10A59000BDF92070D3F84C80BDF82460ABB292B204
:10A5A00089B20446C04705FB07F23146204602B097
:10A5B000BDE8F041FFF772BF2DE9F341BDF920403E
:10A5C000002B46D0002C44D0002B05DA013111FAC3
:10A5D00083F15B4209B21BB2B0F90C608E4238DDE8
:10A5E000002C05DA013212FA84F2644212B224B26B
:10A5F000B0F90E5095422CDD01EB03081FFA88F8E4
:10A6000008F1FF3C0FFA8CFCBCF1000F21DB02EBE0
:10A61000040E1FFA8EFE0EF1FF373FB2002F18DB3B
:10A620000029BCBF0FFA88F30021002ABCBF0FFA33
:10A630008EF400226645DCBF731A1BB2BD42D8BF40
:10A64000AC1ABDF82450D8BF24B2CDE90045FFF7BD
:10A6500098FF02B0BDE8F0812DE9F7438046BDF9CF
:10A660002870BDF82C900C4615461E46002B52D083
:10A67000002F50D0002B05DA013414FA83F45E4227
:10A6800024B236B2B8F90C30A34244DD002F05DA0B
:10A69000013515FA87F57F422DB23FB2B8F90E2089
:10A6A000AA4238DD04EB060E1FFA8EFE0EF1FF30D3
:10A6B00000B200282FDB05EB070C1FFA8CFC0CF115
:10A6C000FF3109B2002926DB002CBCBF0FFA8EF641
:10A6D0000024002DBCBF0FFA8CF700258342DCBF9D
:10A6E0001B1B1EB28A42D8F80030DCBF571B3FB29A
:10A6F0004046DB68984733464046CDE900792A4614
:10A700002146FFF73EFFD8F800305B6A404603B0B1
:10A71000BDE8F043184703B0BDE8F0832DE9F341ED
:10A72000171EBDF8208006460C461D4633DBB0F9E7
:10A730000E30BB422FDD002D2DD005DA013414FA86
:10A7400085F46D4224B22DB2B6F90C30A34222DD5D
:10A75000611989B24A1E12B2002A1CDB002CBCBF50
:10A760000DB200249342DCBF1B1B1DB23368304680
:10A77000DB6898470123009330462B46CDF80480D0
:10A780003A462146FFF7FDFE33685B6A304602B069
:10A79000BDE8F041184702B0BDE8F0812DE9F34172
:10A7A0000F1EBDF82080064614461D4631DBB0F969
:10A7B0000C30BB422DDD002D2BD005DA013414FA0C
:10A7C00085F46D4224B22DB2B6F90E30A34220DDDD
:10A7D000611989B24A1E12B2002A1ADB002CBCBFD2
:10A7E0000DB200249342DCBF1B1B1DB23368304600
:10A7F000DB6898473046CDE90058012322463946A8
:10A80000FFF7BFFE33685B6A304602B0BDE8F04137
:10A81000184702B0BDE8F081002A73B527DBB0F914
:10A820000E40944223DD002B21D005DA013111FACC
:10A8300083F15B4209B21BB2B0F90C408C4216DDC9
:10A84000CE18B6B2751E2DB2002D10DB0029BCBF8C
:10A8500033B20021AC42D8BF631ABDF8184001944E
:10A860004FF00104D8BF1BB20094FFF78AFE02B07C
:10A8700070BD73B5002926DBB0F90C408C4222DD97
:10A88000002B20D005DA013212FA83F25B4212B2B9
:10A890001BB2B0F90E40944215DDD618B6B2751E43
:10A8A0002DB2002D0FDB002ABCBF33B20022AC4218
:10A8B000D8BFA31ABDF81840D8BF1BB2CDE90034E9
:10A8C0000123FFF75EFE02B070BD0000D20002F46B
:10A8D000FC6242EAD303034A02EA012143EA01008F
:10A8E000704700BF00F8FFFF90F8343023B9D0E97B
:10A8F0000A12406A0EF080BD704710B50446FFF79B
:10A90000F3FF94F93600002803DBBDE81040FFF7A1
:10A91000CABC10BD90F8343013B9406A0EF09BBD2C
:10A92000704710B5044690F93600002801DBFFF7A8
:10A93000B6FC2046FFF7EEFF10BD70B590F834303E
:10A9400004460D4623B9BDE87040406A0EF095BD3F
:10A95000012B19D108262B064CBF0121002194F8A8
:10A9600024000FF00BF894F8260001210FF006F8F0
:10A97000013E94F8260000210FF000F86D0016F05B
:10A98000FF06EDB2E7D170BDBDE870402530FFF79E
:10A990008EBC13B5044690F937000191FFF783FC94
:10A9A00020460199FFF7C9FF94F9370002B0BDE8CE
:10A9B0001040FFF774BC036870B5DB680D460446B1
:10A9C000984755B194F83C102046FFF7E2FF236802
:10A9D00020465B6ABDE87040184794F83D10F3E7E5
:10A9E00070B590F8343004460D464BB9090A406AF8
:10A9F0000EF043FD606AE9B2BDE870400EF03DBD67
:10AA0000012B19D110262B044CBF0121002194F8F1
:10AA100024000EF0B3FF94F8260001210EF0AEFFE3
:10AA2000013E94F8260000210EF0A8FF6D0016F0FC
:10AA3000FF06ADB2E7D170BDBDE870402530FFF72D
:10AA400036BC73B5002904461D4617DBB0F90C303F
:10AA50008B4213DD002A11DBB0F90E3093420DDD7D
:10AA6000066801230093F66C92B289B2B04729467A
:10AA7000204602B0BDE87040FFF7B2BF02B070BD23
:10AA80002DE9F3410D1E044616461F4620DBB0F9A2
:10AA90000C30AB421CDD002A1ADBB0F90E309342B9
:10AAA00016DD0368DB689847226801230093D2F81B
:10AAB0004C80A9B2B2B22046C04720463946FFF7C3
:10AAC0008FFF23685B6A204602B0BDE8F04118475B
:10AAD00002B0BDE8F081F8B504460E4615461F46A3
:10AAE000FFF702FF94F93600002801DBFFF7DBFBDC
:10AAF00094F93700FFF7D7FB31462046FFF71DFFDB
:10AB000094F93700FFF7CBFB0026B74213DD94F82A
:10AB10003430022B09D194F8273033B135F8021BB9
:10AB20002046FFF75DFF0136EFE715F8011B2046D1
:10AB3000FFF703FFF7E794F93600002801DBFFF782
:10AB4000AEFB2046FFF7E6FEF8BDF8B504460E461C
:10AB500015461F46FFF7C8FE94F93600002801DBB2
:10AB6000FFF7A1FB94F93700FFF79DFB3146204624
:10AB7000FFF7E3FE94F93700FFF791FB0026B74299
:10AB800013DD94F83430022B09D194F8273033B117
:10AB900035F8021B2046FFF723FF0136EFE715F8D3
:10ABA000011B2046FFF7C9FEF7E794F9360000289D
:10ABB00001DBFFF774FB2046FFF7ACFEF8BD70B574
:10ABC00090F8343004460D469BB9090E406A0EF0E9
:10ABD00054FCC5F30741606A0EF04FFCC5F3072132
:10ABE000606A0EF04AFC606AE9B2BDE870400EF09F
:10ABF00044BC012B19D12026002DB4BF0121002116
:10AC000094F824000EF0BAFE94F8260001210EF00C
:10AC1000B5FE013E94F8260000210EF0AFFE16F0BE
:10AC2000FF064FEA4505E7D170BDBDE8704025300D
:10AC3000FFF73DBB13B501F00301002302298DF896
:10AC40000730B0F94A20B0F94C30817620D0032982
:10AC500024D0012990F8451010D0C0248DF8074069
:10AC600090F84440048741878281C38101230DF11C
:10AC700007023621FFF72FFF02B010BDA024018785
:10AC800090F847108DF807404187C2818381EDE736
:10AC900090F84710018790F84810E4E760218DF89C
:10ACA000071090F84810018790F84410ECE7000076
:10ACB00013B5CDE900230B464FF4A072F0210446F2
:10ACC00000F0B4F8044B23602046002384F847309A
:10ACD00084F8483002B010BDF8DF080070B50D46AA
:10ACE00080F8463000210446164600F0D9F8F02DD1
:10ACF00019D1F02E26D1002384F8483084F847304B
:10AD00004FF4A043A4F8443020461949A4F84A500F
:10AD1000A4F84C6000F0A0F8236820469B6ABDE8C8
:10AD2000704000211847872D0CD1F02E0AD128231E
:10AD300084F8483042F63503A4F84430342384F8CC
:10AD40004730E1E7C6F5A07303EBD373C3F34703C2
:10AD500084F8483084F84530C5F1F00303EBD37331
:10AD6000C3F3470384F8473084F84430CCE700BF8E
:10AD7000CCDF0800054A002908BF114642F2210233
:10AD80008287016490F84620FFF7D0BA0048E801B6
:10AD9000F8B5078F458FBDF81860394413FA81F76D
:10ADA0002A4416FA82F5013F044647EA0147013D6D
:10ADB0002A2145EA0245FFF7ECFD39462046FFF718
:10ADC000FEFE20462B21FFF7E4FD29462046FFF733
:10ADD000F6FE20462C21BDE8F840FFF7DABD07B5A6
:10ADE00001F00301002302298DF8073090F8442078
:10ADF00090F84530817606D0032915D001290DD071
:10AE0000C0218DF807100287438701230DF1070247
:10AE10003621FFF760FE03B05DF804FBA0218DF83A
:10AE2000071042870387F0E76021F8E737B59DF9FF
:10AE30001C5001959DF9185000950446FFF764FADF
:10AE4000044B236020460023A4F8443084F84630A5
:10AE500003B030BD50E008002DE9F04111F8015B6E
:10AE60008046013DEDB2FF2D18D04C788F1C04F0C8
:10AE70007F06097833463A464046FFF766FE2306CA
:10AE800007EB0601EDD5B85DFF2801F1010408BF0D
:10AE90004FF4FA7014F006FA2146E2E7BDE8F081BB
:10AEA00038B503680D469B6C0021044698472DB1C8
:10AEB00029462046BDE83840FFF7CEBF38BD704771
:10AEC00010B504460CF066FF204610BD10B5044CCA
:10AED00004604FF6FF7484808171C27110BD00BFA1
:10AEE000A8E0080070B50A4C0E46204638211546E9
:10AEF0000EF0DEFB314620460EF072FB294620465E
:10AF00000EF06EFB20460121BDE870400EF0DCBB68
:10AF1000ACDF002010B5044604480EF079FB204653
:10AF20000122BDE810400221FFF7DCBFACDF0020AA
:10AF30000022B021FFF7D6BF0A468721FFF7D2BF14
:10AF400010B5382104460E480EF0B2FB21460C48DD
:10AF50000EF046FB00210A480EF0B6FB0A2014F062
:10AF6000A1F90748012238210EF090FB04480EF0A9
:10AF700017FB18B102480EF01DFBC0B210BD00BF98
:10AF8000ACDF002010B50520FFF7DAFF04460620ED
:10AF9000FFF7D6FF240204F47064204380B210BD92
:10AFA00010B50320FFF7CCFF04460420FFF7C8FFCD
:10AFB000240204F47064204380B210BDA020FFF787
:10AFC000BFBF0000092810D91B28094828BF4FF42B
:10AFD000F77001EB410320FA03F303F00703072B9B
:10AFE00003F1080008BF102070470248F1E700BFD6
:10AFF000DCDD03000AB8BB072DE9F0430768541EE7
:10B0000064B225463E4604EB0708002D06DA0134FB
:10B01000B8BF002217440760BDE8F083A8EB060321
:10B020004FEAD60CD0F808E06FEA060921FA03F3DC
:10B0300009F0070903F0010303FA09F31EF80C9065
:10B04000013D43EA09030EF80C306DB20136DCE72E
:10B0500010B50468806804FB0212D443D2080121B1
:10B0600004F0070401FA04F4815C13B12143815414
:10B0700010BD21EA0401FAE7036803FB0212D308BA
:10B080008168D243C85C02F00702104100F0010061
:10B09000704700002DE9F74F90F800A00192064696
:10B0A0008846002503275FFA85FBD34502D303B00A
:10B0B000BDE8F08F4FEA5B036FEA0B0900930024B1
:10B0C00009F001095A4621464046FFF7D5FF48BB23
:10B0D000019B072B0CD8DFE803F0040A2B353E4315
:10B0E000515B0BEB0400C04300F0010000E0484658
:10B0F0003368D6F808C003FB0543DA43DB0802F0E7
:10B100000702012101FA02FE1CF8031041FA02F2C3
:10B1100002F00102904214BF41EA0E0121EA0E0141
:10B120000CF803100134E4B2A245CBD80135BAE7DC
:10B13000B4FBF7F000EB4000201AC0B2B0FA80F088
:10B140004009D5E7164B60195843B0F1553F8CBF05
:10B1500000200120CCE7009BB4FBF7F01844C2E7C5
:10B1600005FB04F3B3FBF7F101EB410103F001022E
:10B170005B1ADA420CBF01200020B9E705FB04F39B
:10B1800003F00100B3FBF7F202EB42029B1AE5E782
:10B190000BEB040000F0010005FB04F3F2E700BF35
:10B1A000ABAAAAAA13B50C4611461A469DF8103050
:10B1B000CDE90012FFF74CFFDDE900120123204624
:10B1C00002B0BDE81040FFF743BF2DE9F04F043B4C
:10B1D00090F800B085B0074692469CB26FF0030528
:10B1E00085EAE578A8EBE578D1466FF003065FFACB
:10B1F00088F8A9F1040213041BD4934519DD23B286
:10B20000002B16DB9B4514DD86EAE670A0EBE670AA
:10B21000C0B24045B8BF40460228D2B2E3B217D010
:10B22000043818BF0120009038460391FFF7BAFF99
:10B230000399013676B2052E09F10109D9D10135FC
:10B240006DB20134052DA4B2CAD105B0BDE8F08FAE
:10B250000020E8E72DE9F74343EAC2030678804679
:10B2600089461C460A2540F23757620A7A43013D57
:10B2700082EA4404F9D144EA832484F4A84484F0A3
:10B2800012042F4624FA07F303F001030093082267
:10B29000FBB2494640460137FFF784FF062FF1D144
:10B2A000C4F3801300930822072349464046FFF762
:10B2B00079FFC4F3C013009308231A464946404659
:10B2C000FFF770FFC4F300230093072208234946C9
:10B2D0004046FFF767FF092724FA07F3C7F10E027C
:10B2E00003F001030093D2B20823494640460137D8
:10B2F000FFF758FF0F2FEFD1771E24FA05F37A1BC3
:10B3000003F001030093D2B20823494640460135B9
:10B31000FFF748FF082DF0D1A6F10F0724FA05F238
:10B320007B1902F001020092DBB208224946404636
:10B330000135FFF737FF0F2DF0D1A6F108030122E9
:10B340000092DBB2082249464046FFF72BFF03B0CC
:10B35000BDE8F083A0F13003DBB2092B01D858B26D
:10B360007047A0F14103192B02D8373840B270471B
:10B370002038C0B21A289ABF024B18564FF0FF303F
:10B38000704700BFB0E0080080001130C0B210FB71
:10B3900000F00730C00870472DE9F04F2DED048B09
:10B3A00099B01446837096005B00B12242FA03F311
:10B3B00002AF03F0030308EE103A631EBB62BA6AE1
:10B3C000354B816033F812303B6218EE102ADB08EF
:10B3D0008B46B96AFB61282303FB02132F4AF862EC
:10B3E00032F813303A6ABB61C3EBD20293B27B628C
:10B3F0003B6A0470DA1DD208D31D6946F6B2DB0839
:10B40000A1EBC30306F1110A9D465FFA8AFA80F8A0
:10B4100001A0002102A8B7F89490D7F89080796332
:10B420003A87F8630AF064FA4D46C5B907F1340368
:10B43000184604220121FFF7DFFD29462046FFF7C9
:10B44000C1FD07F13403024649461846FFF7D4FD13
:10B4500007F13403C14429462A46184631E0013D2C
:10B46000ADB218F80530303B092BDED94D46002D22
:10B4700040F07D810422022107F13400FFF7BCFD7A
:10B4800001212046FFF79EFD4946024607F13400A0
:10B49000FFF7B2FDC14496E1ACE208006CE10800A0
:10B4A00018F8013B01EB8101013203EB4101D2B2FB
:10B4B0003039032A89B204D10A22FFF79DFD002109
:10B4C0000A46C845ECD142B102EB42020132D2B287
:10B4D00007F13400FFF790FD0022FB6ADA707B6A07
:10B4E0007A6BC2EBC302042A28BF042207F134009E
:10B4F000D2B20021DD00FFF77FFD7A6B52420021BE
:10B5000002F00702FFF778FDEC217B6B9D4200F211
:10B5100071811AFB0AF50735EA100021ED0858463B
:10B520007A62C7F840A0A7F84450C7F848B00AF0BC
:10B53000DFF97A6AC7F84CA0D31D6946DB08A1EB96
:10B54000C3039D4602A80021A7F8505078650AF071
:10B55000CFF94FF000095FFA89F5AA4500F2508152
:10B56000032306F10D051A4607F14C0107F14000CF
:10B57000EDB2FFF72AFE03232A4607F14C0107F13B
:10B580004000FFF722FE2B46032207F14C0107F192
:10B590004000FFF71AFE012C40F28E800722B4FB18
:10B5A000F2F202F102086B46202C5FFA88F807EEEF
:10B5B000903A1CBF08EB44035B0008F1FF3A1EBF42
:10B5C00001334FEA4A01B3FBF1F308F1070101F43B
:10B5D000FC71ADEB010D02A918BF5B0002F1010285
:10B5E000796206F10A064FF006018DF8081014BFC3
:10B5F000DBB21A23D2B2F6B20021501A7D6AC0B271
:10B600000131C9B22E545145A6EB0306F6B2F4DB64
:10B610004FF000090026B9F1000F03D1002E3ED0F3
:10B6200056453CD0D14501D1002E38D07B6A13F865
:10B6300009307B617B6A9B5D3B616FF00105EBB27A
:10B64000FB603B69002D53FA85F3B8BF6D426FF084
:10B650000101DBB2EDB27A6900295FFA81FB52FA8F
:10B6600081F2B8BF4942C9B2A942B8BF29460139DF
:10B6700018BF01210091D2B2BB6007F14C0107F164
:10B6800040000BF1010BFFF78DFD4FFA8BF1032901
:10B69000BB68E0D1FD6801356DB2032DCFD1013615
:10B6A000F3B29845B7D809F101095FFA89F39845D3
:10B6B000B0D817EE903A9D4618EE102A002307F1F5
:10B6C0004C0107F14000FFF7C5FD062C00F2B380E6
:10B6D0006B46934A18EE101A09EE103A282303FB22
:10B6E0000123BA6A9C5CBB69B3FBF4F3BB6197F8B6
:10B6F0001890FA69FB69B3FBF4F304FB1322A3EB84
:10B7000009035FFA83F83B8FA21A08EE903AD2B28F
:10B710000733FA61DB086A46A2EBC3039D4602AB1E
:10B7200018EE902A00211846BB620AF0E1F809F1F0
:10B73000070303F4FC73ADEB030D02AB4A46002193
:10B7400018467B620AF0D4F809F1FF337B617A690D
:10B750007B6A012199544FF0000C5FFA8CF39945F4
:10B7600040F2E080786A00255FFA81FEC7E0013D83
:10B77000ADB218F80500FFF7EDFD01307FF477AEAC
:10B78000042207F1340511462846FFF735FC022153
:10B790002046FFF717FC494602462846FFF72CFCD7
:10B7A000C14423E001EB410518F8010BC5EB05117D
:10B7B00089B2FFF7CFFD014489B282B10B2207F1B4
:10B7C0003400FFF719FC00210A46C145EAD122B135
:10B7D000062207F13400FFF70FFC01227DE601226B
:10B7E000F3E718F8011B0822FFF706FCC145F8D162
:10B7F000022272E60822FFF7FFFB81F0FD0184E6DA
:10B800006FEA050808F001082B46062207F14C01F3
:10B8100007F14000CDF80080FFF7C4FCCDF80080B0
:10B8200006232A4607F14C0107F14000FFF7BAFC56
:10B8300009F101098FE622460C2541F62571D30A4C
:10B84000013D4B4315F0FF0583EA4202F7D13B6C03
:10B8500042EA04344FF0030AA3F10B095FFA85FBB7
:10B86000BBFBFAF606EB4602ABEB020B24FA05F83B
:10B87000CB4408F001085FFA8BFBF6B233465A4618
:10B8800007F14C0107F14000CDF80080FFF78AFC7A
:10B890000135CDF800805B46324607F14C0107F1D7
:10B8A0004000FFF77FFC122DD8D111E703783B61F0
:10B8B00007260023DA0902EBC20A02EB4A02C2EBB6
:10B8C000021282EA43034EFA06FA3A690AF0010AC2
:10B8D0001AFB02FA8AEA0303013E0FFA83FB9BB2CA
:10B8E000E8D201354D45B8BF43785FFA8BFB80F84D
:10B8F00000B0BCBF8BEA030B80F800B00130EBB2A4
:10B900009945D3D8CB0903EBC30203EB4203C3EB46
:10B91000031383EA410189B20CF1010C1DE700BF5A
:10B92000CBE008000023D7F83CA01A46D9B2414525
:10B93000C0F0A980FB69FA6903FB088304FB08FCDB
:10B940009BB241460020A4EB020BC5B20CEB0002F7
:10B950005D4592B2C0F2B3807B69796A63433B6113
:10B96000BB6A1A44BB6951FA83F3554600207B60D9
:10B97000C3B2A342C0F0AF8018EE902AB96A504615
:10B9800009F0A8FF3B6A7B6319EE103A9D4697F8D1
:10B9900040907B6BBB62FB6B7B6209F1FF331CB297
:10B9A00000257B61002C00F3E8800023C7E9083301
:10B9B0006FF00043FB6097F8249007F1400818EE01
:10B9C000102A4B4607F14C014046FFF743FC4A461C
:10B9D00007F14C014046FFF75DFB4FF0000A97F876
:10B9E00040505446554540F011814FF0000B5D45E5
:10B9F00040F032810023FB613B6197F81C80454594
:10BA000000F2BA813B6914226D435A4300214FF082
:10BA10000A0C8BB2C3F10900684382420CFB014659
:10BA2000C0F2B4810B336B439A4200F3AF81FB68E1
:10BA30004A469E4207F14C0107F14000BCBFFE6040
:10BA4000C7F82090FFF726FB7B6A0133082B7B6247
:10BA5000B1D1FB6A1A463B6A137107F14C0118EE2B
:10BA6000102A07F14000FFF7F5FB3A6A07F14C0195
:10BA700007F14000FFF70EFB00205C37BD46BDEC30
:10BA8000048BBDE8F08F99B2404600255FFA85FC33
:10BA9000561964451FFA86FB03D8224492B201333B
:10BAA00044E7BE6A1AF801E006F80BE0FE69664555
:10BAB00004BF0130C0B2014489B20135E6E7BE6A75
:10BAC0001AF803E006F802E00DB90131C9B20B44DF
:10BAD0009BB2013039E7F9698B4204BF08F10103D9
:10BAE0005FFA83F808EB0503AE467B617B6973451B
:10BAF00003D14544013001323AE71EF8011B1378A7
:10BB00004B40FB60002113460131CEB24E4530D38D
:10BB10003B694FF00001D1547B6ABB6116467B68DC
:10BB2000B9698B42E2D0BB6919464FF0070C11F896
:10BB3000013BBB60B9610023D90901EBC10B01EBEB
:10BB40004B01C1EB011181EA4303F96841FA0CFB97
:10BB5000B9680BF0010B1BFB01FB8BEA0303BCF183
:10BB6000010C19B29BB2E7D23378594031702644A8
:10BB7000D5E71E5D1E702344C6E7062C08BF0524CA
:10BB80005FFA84FAAAF10203DBB24FF00008BB614E
:10BB90005FFA88F6B14502D8023C24B202E784F08D
:10BBA0000203C3F340033B627B699B1BD346FB61EB
:10BBB0003A6ABBF1050F8CBF00230123934214BFE7
:10BBC0003A7F3246594607F14C003A61FFF754FA82
:10BBD00090B9BB6A3A69AB420ED9796AEB08E8437F
:10BBE000CB5C00F00700034103F00103594607F165
:10BBF0004000FFF72DFA0135BB690BF1FF315FFA09
:10BC000081FB5B45D4D108F10108C1E70021524610
:10BC10004046FFF731FA0126834631468D4204D172
:10BC20000AF101025FFA82FADCE6524607F14000AF
:10BC3000B962FFF721FA5845B96A0AD10136F6B25E
:10BC4000052E03D103340131C9B2E7E7FBD9013432
:10BC5000F9E783460126F6E7002259464046FFF7FA
:10BC60000BFA012682463246954204D10BF1010BB4
:10BC70005FFA8BFBBBE6594607F14000BA62FFF75B
:10BC8000FBF95045BA6A0AD10136F6B2052E03D146
:10BC900003340132D2B2E7E7FBD90134F9E7824637
:10BCA0000126F6E74246314607F14000FFF7E4F986
:10BCB000B86246B3B8F1000F25D006F1FF3A5FFA3B
:10BCC0008AFA17EE902A514607F14000FFF7D4F99F
:10BCD000314617EE902A786007F14000FFF7CCF963
:10BCE0004246B860514607F14000FFF7C5F9BB6A0C
:10BCF0001A467B689A4206D11346BA68934202D12B
:10BD0000834208BF0334BB69BA6A5B00C3F30A030A
:10BD100013430FFA83FA32469BB2414607F14000C3
:10BD2000BB61FFF7A9F97B695B00C3F30A03184302
:10BD300082B2092E03B27A610ED9BAF15D0F03D037
:10BD4000BA69B2F5BA6F00D128345D2B03D07B6994
:10BD5000B3F5BA6F00D12834BB6A1BB13B6901331C
:10BD60009BB23B610BF1010B5FFA8BF6B54299D8A0
:10BD7000FB690133FB6140E608F1FF334FF0000B34
:10BD8000DBB2C7E905BB07EE903AEDE7013140E6CB
:10BD900030B587B004460A9D03932846CDE90421B7
:10BDA0000AF004FB80B2CDE90050DDE903320599C9
:10BDB0002046FFF7F1FA07B030BD43788B420ED929
:10BDC00093420CD902FB0312D3088168C85CD343A9
:10BDD00003F0070340FA03F303F00100704700206B
:10BDE000704700000449054A02230B7008B1137024
:10BDF00070470123FBE700BFB0A10020AFA10020E6
:10BE0000094A50B909490B8801339BB20B800123C1
:10BE10001370074B04221A70704706490B880133D0
:10BE20009BB20B800023F3E7B0A10020EAD70020EB
:10BE3000AFA10020E8D7002008B5204B20480222FF
:10BE40001A700DF0C3F91F491F4808220DF014F9AC
:10BE50001E491F4810220DF018F91E4B1B78012BAC
:10BE60000AD11D491A4810220DF018F920B91A49B3
:10BE7000174810220DF012F90822184918480DF041
:10BE80001FF9012117480DF03AF9002116480DF06D
:10BE900048F916480DF0A1F8154914480DF0D4F8EA
:10BEA000144912480DF0D8F8134910480DF0DCF889
:10BEB000124B00221A70062008BD00BFB0A100205E
:10BEC0008DDF002074D700206ADF00207CD700209F
:10BED0006BDF0020E0D20020C2D200208CD70020EF
:10BEE0006EDF002073DF002077DF002069DF002095
:10BEF00035C20200E5BD020001BE0200AFA1002074
:10BF00002DE9F04F044685B04B480DF008F94B4A37
:10BF1000002800F087804A4B93F800A00325BAF16F
:10BF2000010F157004F15002464C10D103920DF030
:10BF300069FD0023C4E90003039A4348CDE9003AB0
:10BF400006212B460DF05AF805B0BDE8F08F3F4DA5
:10BF500095F800A0BAF1000F13D1012303922B70C2
:10BF60000DF050FD3A4B3B49039AC3E9000A3A4BA6
:10BF7000D3E906ABC1E900ABD3E90801374BC3E90C
:10BF8000000103920DF03EFD0023636002220123B5
:10BF900020600A21CDE900322B48039A0DF02EF8DB
:10BFA00008B92F4B1870FDF7C7FB63282D4C21DC17
:10BFB0002D4B5A682D4B9A421CD82D4B1B78012BC8
:10BFC00018D1D4E90023134304D10DF01BFD002345
:10BFD000206063600DF016FDD4E90032C61A62EBF2
:10BFE0004207224A0023B242BB41ADDA214B012273
:10BFF0001A70A9E700220023C4E900231D4B002486
:10C000001C700DF0FFFC124AD2E90032B0EB0308BD
:10C0100064EB0209154A0023424573EB090393DAE6
:10C020002C7091E710700E4B074802221A7005B071
:10C03000BDE8F04F0CF0D1BF74DF0020AFA10020AD
:10C0400038D7002040D7002069DF0020C9D6002063
:10C05000D0D6002060D6002068D6002058D6002018
:10C06000B0A10020D8D60020D4D20020A0BB0D0063
:10C07000E0D2002039D70020014B1878704700BF6C
:10C08000AFA10020014B1878704700BFB0A100207D
:10C09000014B1878704700BFC8D60020014B002222
:10C0A0001A707047C8D6002013B50446012304F85F
:10C0B000123B34F80239A3808442E38A2383F8D107
:10C0C0001E2928BF1E2146236180084600931E2298
:10C0D000942300210CF002FE94F82A30E0820A2B0F
:10C0E0001CBF013384F82A3002B010BDF7B50446F6
:10C0F000012304F8123B154634F90239A380E38A80
:10C100002383638DA3858442E38FA4F84030F3D169
:10C110006FF08106B142B8BF314614290846A8BF66
:10C120001420B542B8BF35469427142D608032469E
:10C1300000974FF046034FF01401A8BF14250CF0F0
:10C14000CDFD6585E08246230097324614212846BE
:10C150000CF0C4FD94F85230E0870A2B1CBF013369
:10C1600084F8523003B0F0BD73B50446012304F8DF
:10C17000123B34F90239A380E38A2383638DA385BC
:10C180008442E38FA4F84030F3D121EAE170B0F5A6
:10C19000FA4F22EAE275A8BF4FF4FA404626B5F5F9
:10C1A000FA4F60804FF0940300964FF4FA424FF03C
:10C1B0000001A8BF4FF4FA450CF090FD6585E082C0
:10C1C000942300964FF4FA42002128460CF086FD95
:10C1D00094F85230E0870A2B1CBF013384F85230A8
:10C1E00002B070BD034613B51C46012204F8122BA1
:10C1F000084634F90229A2809C42E28A2283F8D1BF
:10C200006FF01D018842B8BF08461E28A8BF1E2037
:10C21000462360801E22009394230CF05FFD94F867
:10C220002A30E0820A2B1CBF013384F82A3002B086
:10C2300010BD0000F7B50378022B06462BD14168EC
:10C240001648CB784A788F78C3EB431503EB850506
:10C250000B794979C3EB431403EB8404C83AC83F14
:10C2600012B23FB26D00640001922DB2FFF71CFFC5
:10C2700024B2019A0A483946FFF738FF2A4609488E
:10C280002146FFF771FF96F90C100748FFF7AAFF48
:10C29000064B01221A7003B0F0BD00BF48D7002042
:10C2A00094D70020E4D60020ECD70020C8D6002088
:10C2B000012115200DF04BBB73B5FF2300930546FC
:10C2C000642308460A2200210CF008FD0024C6B2AF
:10C2D000A3B29E4208D9214615200DF05BFB2846EB
:10C2E00012F0E0FF0134F3E702B070BD07B5FF23A1
:10C2F00000930A22642300210CF0F0FCC1B2152047
:10C3000003B05DF804EB0DF045BB00002DE9F04FE4
:10C310008368B0F802801D880388DFF874B0044693
:10C3200085B01B4808FB03F8CDE90221FEF7E5FACA
:10C3300063880093DDE9022123881548FEF728FD74
:10C340004FEAE8790026002700224F4508BF4645FE
:10C3500014D2A3684FEA460A33F80A30AB4204D13C
:10C360000132013647F10007EFE729465846FEF74C
:10C3700095F8A368012233F80A50F2E704482946E9
:10C38000FEF78CF8024805B0BDE8F04FFEF7C9BAD9
:10C3900040D80020F0B5222387B01A46194605463A
:10C3A0004E484E4EFEF792FA5123019000934B48AF
:10C3B000FD2346223021FEF74FF9462476231A4604
:10C3C00019463046FEF782FA27B21A34CDE90070DA
:10C3D0004FF496733A4630213046A4B2FDF73EFB47
:10C3E000AE2CEBD13D4F00244FF6FF7695F82A3066
:10C3F000E1B25A1E91422ADA08291FD04B1CC3EB26
:10C40000C32203EBC20205EB410003EB8203C1EB45
:10C41000C12201EBC202019601EB8201B0F91820A2
:10C42000009203F5967301F59671B0F916201BB2D0
:10C4300009B23846FDF712FB0134D7E70196B5F98A
:10C4400028300093B5F9262030235421F1E7002B42
:10C4500037D0234E3378092B35D0C3EBC32403EBFD
:10C46000C40403EB84041D48C6236A220021FEF79E
:10C470002DFA04F59674942324B200930190234678
:10C48000194616484622FDF7E9FA012200214FF627
:10C49000FF70FBF7B1FCD421CB20FBF799FC0F22F6
:10C4A000002102A809F024FA30780E4905EB400576
:10C4B00002A86A8809F048FF0022032102A8FBF7BE
:10C4C000DBFF07B0F0BDC62304486A220021FEF757
:10C4D000FDF99423009301903023D1E740D8002048
:10C4E0002AD800204C7209002DE9F04F222389B090
:10C4F0001A4604460D469348934E1946FEF7E6F950
:10C500002C23019000938F4838234C220B21FEF7F7
:10C51000A3F80F22002104A809F0EAF930788B492A
:10C5200004EB400404A8628809F00EFF8848FBF77A
:10C53000ADFD4C210C20FBF74BFC22231A4619467B
:10C540008048FEF7C3F9002201464FF6FF70FBF763
:10C5500053FC0222114604A8FBF78EFF7D48FBF72F
:10C5600095FD22231A4619467648FEF7AFF94E2369
:10C57000019000937348B62346227821FEF76CF8A9
:10C58000B346704E462476231A4619463046FEF7C7
:10C590009DF927B21A34CDE900704FF496733A46EC
:10C5A00078213046A4B2FDF759FAAE2CEBD1654F95
:10C5B0004FF0000995F852205FFA89F3511E8B4223
:10C5C0005FDA082B3BD0C3EB033605EB4308C3EB24
:10C5D00086060133C3EB0334C3EB84039C00B8F934
:10C5E00018300393EB228A238E213846B8F916A01F
:10C5F000B600FEF76BF906F5967604F59674039B84
:10C60000019036B224B25246009331462346384652
:10C61000FDF724FA83231A46FF213846B8F93EA0D5
:10C62000B8F94080FEF752F9CDE900802346524622
:10C6300031463846FDF712FA09F10109BAE78A23B3
:10C64000EB228E213846B5F92640B5F92860FEF771
:10C650003DF92246CDE9006078238C213846FDF76C
:10C66000FDF983231A46FF213846B5F94E40B5F946
:10C670005060FEF72BF97823CDE9006022468C212B
:10C68000D7E7002A50D09BF80030092B4FD0C3EBDE
:10C690000334C3EB84042B48C6236A220021FEF72F
:10C6A00015F9A40004F59674942324B20093019024
:10C6B0002346194623484622FDF7D0F901220021DE
:10C6C0004FF6FF70FBF798FBD4217820FBF780FB37
:10C6D0000F22002104A809F00BF99BF800301E4935
:10C6E00005EB430304A8B3F9022009F02DFE002254
:10C6F000082104A8FBF7C0FED421F020FBF768FB5B
:10C700000F22002104A809F0F3F89BF8001005EBB4
:10C71000410504A8B5F92A200F4909F015FE0022A9
:10C72000082104A8FBF7A8FE09B0BDE8F08FC623D6
:10C7300004486A220021FEF7C9F89423009301906F
:10C740007823B6E740D8002019D800204C720900A1
:10C75000C40509003DE60800FCE208002DE9F043AD
:10C76000222389B01A4606460C468448844D834FDE
:10C770001946FEF7ABF82C23019000937F4838232D
:10C780004C220B21FDF768FF0F22002104A809F0BD
:10C79000AFF828787B4906EB400604A8728809F0B8
:10C7A000D3FD7948FBF772FC4C210C20FBF710FB02
:10C7B00022231A4619467148FEF788F800220146DE
:10C7C0004FF6FF70FBF718FB0222114604A8FBF797
:10C7D00053FE6E48FBF75AFC22231A461946674857
:10C7E000FEF774F84E23019000936448B623462266
:10C7F0007821FDF731FF462676231A46194638463A
:10C80000FEF764F80FFA86F81A36CDE900804FF487
:10C810009673424678213846B6B2FDF71FF9AE2E20
:10C82000EAD1DFF858914FF000084FF6FF7694F800
:10C8300052205FFA88F3511E8B4241DA082B2BD02D
:10C84000C3EB033104EB4307C3EB81010133C3EBBB
:10C8500003320196C3EB82038900B7F918200092D6
:10C860009B0001F5967103F5967309B21BB2B7F9F7
:10C870001620039348460291FDF7F0F80196B7F9A8
:10C8800040200092039BB7F93E2002994846FDF7ED
:10C89000E5F808F10108CAE70196B4F928300093D9
:10C8A000B4F9262078238C214846FDF7D7F8019665
:10C8B000B4F950300093B4F94E2078238C21E5E789
:10C8C000002A4DD02B78092B4DD0C3EB0336C3EB98
:10C8D00086062A48C6236A220021FDF7F7FFB60024
:10C8E00006F59676942336B20093019033461946A6
:10C8F00022484622FDF7B2F8012200214FF6FF70D0
:10C90000FBF77AFAD4217820FBF762FA0F22002194
:10C9100004A808F0EDFF2B781D4904EB430304A89D
:10C92000B3F9022009F010FD0022082104A8FBF74A
:10C93000A3FDD421F020FBF74BFA0F22002104A81D
:10C9400008F0D6FF297804EB410404A8B4F92A20A2
:10C950000F4909F0F9FC0022082104A8FBF78CFD1F
:10C9600009B0BDE8F083C62304486A220021FDF720
:10C97000ADFF9423009301907823B8E740D80020BE
:10C9800029D800204C720900C40509003DE60800C2
:10C9900002E308002DE9F043222387B01A4604463B
:10C9A0000D466D486D4E6C4F1946FDF78FFF2C23D9
:10C9B00001900093684838234C220B21FDF74CFE70
:10C9C0000F22002102A808F093FF3078644904EB9D
:10C9D000400402A8628809F0B7FC6248FBF756FBE6
:10C9E0004C210C20FBF7F4F922231A4619465A4829
:10C9F000FDF76CFF002201464FF6FF70FBF7FCF9D4
:10CA00000222114602A8FBF737FD5748FBF73EFB11
:10CA100022231A4619465048FDF758FF4E2301902D
:10CA200000934D48B62346227821FDF715FE462493
:10CA300076231A4619463846FDF748FF0FFA84F860
:10CA40001A34CDE900804FF4967342467821384677
:10CA5000A4B2FDF703F8AE2CEAD1DFF8FC90002772
:10CA60004FF6FF7895F82A30FAB2591E8A422ADA30
:10CA7000082A1ED0531C05EB4200C3EB0331C2EB66
:10CA80000234CDF80480C3EB8103C2EB8404B0F917
:10CA9000182000929B00A40003F5967304F5967489
:10CAA000B0F916201BB221B24846FCF7D7FF013778
:10CAB000D8E7CDF80480B5F928300093B5F92620E1
:10CAC00078238C21F0E7002B37D03378092B37D02F
:10CAD000C3EB0334C3EB84041F48C6236A2200213E
